{"project/src/MockKSNOracleAdapter.sol":{"MockKSNOracleAdapter":{"abi":[{"inputs":[{"internalType":"bytes32","name":"assetId","type":"bytes32"}],"name":"ksnScore","outputs":[{"internalType":"uint256","name":"","type":"uint256"}],"stateMutability":"view","type":"function"},{"inputs":[{"internalType":"bytes32","name":"","type":"bytes32"}],"name":"scores","outputs":[{"internalType":"uint256","name":"","type":"uint256"}],"stateMutability":"view","type":"function"},{"inputs":[{"internalType":"bytes32","name":"assetId","type":"bytes32"},{"internalType":"uint256","name":"score","type":"uint256"}],"name":"setScore","outputs":[],"stateMutability":"nonpayable","type":"function"}],"evm":{"bytecode":{"linkReferences":{},"object":"608060405234801561000f575f80fd5b506101118061001d5f395ff3fe6080604052348015600e575f80fd5b5060043610603a575f3560e01c80635b36ac1c14603e57806389d9db9d14606c5780639711cacc14608a575b5f80fd5b605a604936600460a6565b5f6020819052908152604090205481565b60405190815260200160405180910390f35b6088607736600460bc565b5f9182526020829052604090912055565b005b605a609536600460a6565b5f9081526020819052604090205490565b5f6020828403121560b5575f80fd5b5035919050565b5f806040838503121560cc575f80fd5b5050803592602090910135915056fea264697066735822122000e727c06b5d079815f3af6ce13259c2033f073bb440bf5f704ab43e39f0700264736f6c63430008180033","opcodes":"PUSH1 0x80 PUSH1 0x40 MSTORE CALLVALUE DUP1 ISZERO PUSH2 0xF JUMPI PUSH0 DUP1 REVERT JUMPDEST POP PUSH2 0x111 DUP1 PUSH2 0x1D PUSH0 CODECOPY PUSH0 RETURN INVALID PUSH1 0x80 PUSH1 0x40 MSTORE CALLVALUE DUP1 ISZERO PUSH1 0xE JUMPI PUSH0 DUP1 REVERT JUMPDEST POP PUSH1 0x4 CALLDATASIZE LT PUSH1 0x3A JUMPI PUSH0 CALLDATALOAD PUSH1 0xE0 SHR DUP1 PUSH4 0x5B36AC1C EQ PUSH1 0x3E JUMPI DUP1 PUSH4 0x89D9DB9D EQ PUSH1 0x6C JUMPI DUP1 PUSH4 0x9711CACC EQ PUSH1 0x8A JUMPI JUMPDEST PUSH0 DUP1 REVERT JUMPDEST PUSH1 0x5A PUSH1 0x49 CALLDATASIZE PUSH1 0x4 PUSH1 0xA6 JUMP JUMPDEST PUSH0 PUSH1 0x20 DUP2 SWAP1 MSTORE SWAP1 DUP2 MSTORE PUSH1 0x40 SWAP1 KECCAK256 SLOAD DUP2 JUMP JUMPDEST PUSH1 0x40 MLOAD SWAP1 DUP2 MSTORE PUSH1 0x20 ADD PUSH1 0x40 MLOAD DUP1 SWAP2 SUB SWAP1 RETURN JUMPDEST PUSH1 0x88 PUSH1 0x77 CALLDATASIZE PUSH1 0x4 PUSH1 0xBC JUMP JUMPDEST PUSH0 SWAP2 DUP3 MSTORE PUSH1 0x20 DUP3 SWAP1 MSTORE PUSH1 0x40 SWAP1 SWAP2 KECCAK256 SSTORE JUMP JUMPDEST STOP JUMPDEST PUSH1 0x5A PUSH1 0x95 CALLDATASIZE PUSH1 0x4 PUSH1 0xA6 JUMP JUMPDEST PUSH0 SWAP1 DUP2 MSTORE PUSH1 0x20 DUP2 SWAP1 MSTORE PUSH1 0x40 SWAP1 KECCAK256 SLOAD SWAP1 JUMP JUMPDEST PUSH0 PUSH1 0x20 DUP3 DUP5 SUB SLT ISZERO PUSH1 0xB5 JUMPI PUSH0 DUP1 REVERT JUMPDEST POP CALLDATALOAD SWAP2 SWAP1 POP JUMP JUMPDEST PUSH0 DUP1 PUSH1 0x40 DUP4 DUP6 SUB SLT ISZERO PUSH1 0xCC JUMPI PUSH0 DUP1 REVERT JUMPDEST POP POP DUP1 CALLDATALOAD SWAP3 PUSH1 0x20 SWAP1 SWAP2 ADD CALLDATALOAD SWAP2 POP JUMP INVALID LOG2 PUSH5 0x6970667358 0x22 SLT KECCAK256 STOP 0xE7 0x27 0xC0 PUSH12 0x5D079815F3AF6CE13259C203 EXTCODEHASH SMOD EXTCODESIZE 0xB4 BLOCKHASH 0xBF PUSH0 PUSH17 0x4AB43E39F0700264736F6C634300081800 CALLER "},"methodIdentifiers":{"ksnScore(bytes32)":"9711cacc","scores(bytes32)":"5b36ac1c","setScore(bytes32,uint256)":"89d9db9d"}}}}}